[2025-04-06T05:54:04.086Z] ERROR: Pair 0x69D3646Da5bfaA30BA1e5255d3960EeE9ca0a5cF does not exist or is not accessible: bad address checksum (argument="address", value="0x69D3646Da5bfaA30BA1e5255d3960EeE9ca0a5cF", code=INVALID_ARGUMENT, version=address/5.8.0)
[2025-04-06T05:54:04.087Z] ERROR: Pair 0x1483767D036cB1eeC27AE15f7A85dE41e1aA87A2 does not exist or is not accessible: bad address checksum (argument="address", value="0x1483767D036cB1eeC27AE15f7A85dE41e1aA87A2", code=INVALID_ARGUMENT, version=address/5.8.0)
[2025-04-06T05:54:04.088Z] ERROR: Pair 0xA0C3Ef24eeF06Be6c8f5e9aD44d647B38bD87A8B does not exist or is not accessible: bad address checksum (argument="address", value="0xA0C3Ef24eeF06Be6c8f5e9aD44d647B38bD87A8B", code=INVALID_ARGUMENT, version=address/5.8.0)
[2025-04-06T05:54:04.088Z] ERROR: Pair 0x259196C42c7737C4F6AD845A90d9920Beb7bF310 does not exist or is not accessible: bad address checksum (argument="address", value="0x259196C42c7737C4F6AD845A90d9920Beb7bF310", code=INVALID_ARGUMENT, version=address/5.8.0)
[2025-04-06T05:54:18.165Z] ERROR: Failed to authorize pair 0x58F876857a02D6762E0101bb5C46A8c1ED44Dc16: processing response error (body="{\"jsonrpc\":\"2.0\",\"error\":{\"code\":-32000,\"message\":\"INTERNAL_ERROR: could not replace existing tx\"},\"id\":98}", error={"code":-32000}, requestBody="{\"method\":\"eth_sendRawTransaction\",\"params\":[\"0x02f8cf38078459682f008459682f0082bf4c941be03f82eabe1c898b83a3eda696886247e8669e80b86481598e8900000000000000000000000058f876857a02d6762e0101bb5c46a8c1ed44dc1600000000000000000000000000000000000000000000000000000000000000010000000000000000000000000000000000000000000000000000000000000001c080a0f79be2fec87ecfb6ea1b0fef5716290c7dc6bac298a0abcfad75de46a4431059a00c1c0dd9bf388538db29a744e867c23187dee8f76859dbaec5e941437bfd8427\"],\"id\":98,\"jsonrpc\":\"2.0\"}", requestMethod="POST", url="https://bsc-mainnet.infura.io/v3/2acd67a7a87446fabc0602afcff6eff4", code=SERVER_ERROR, version=web/5.8.0)
[2025-04-06T05:54:42.156Z] ERROR: Failed to authorize pair 0x0eD7e52944161450477ee417DE9Cd3a859b14fD0: transaction was replaced [ See: https://links.ethers.org/v5-errors-TRANSACTION_REPLACED ] (cancelled=true, reason="replaced", replacement={"hash":"0x382dc4df9ad6c889e27d241f8950c64ac078bd1ba6736a5e86833d18ada3ff53","type":2,"accessList":[],"blockHash":"0x3e6d56e22b9da16c02ec13d9a3f6cff94989f395e7f6ffbb43995ab1690c9e99","blockNumber":48112348,"transactionIndex":60,"confirmations":7,"from":"0xEC6c09E7024900a25AA69d01812aDFF01D50DC68","gasPrice":{"type":"BigNumber","hex":"0x59682f00"},"maxPriorityFeePerGas":{"type":"BigNumber","hex":"0x59682f00"},"maxFeePerGas":{"type":"BigNumber","hex":"0x59682f00"},"gasLimit":{"type":"BigNumber","hex":"0xbf4c"},"to":"0x1BE03f82EAbE1C898b83A3eDa696886247e8669e","value":{"type":"BigNumber","hex":"0x00"},"nonce":7,"data":"0x81598e89000000000000000000000000804678fa97d91b974ec2af3c843270886528a9e600000000000000000000000000000000000000000000000000000000000000010000000000000000000000000000000000000000000000000000000000000001","r":"0xa4de6d5bf665548033b02ffea05797dc58eaaaddc26d4d9fcfbb460c3a8f631a","s":"0x6e002d3a26b11f88ece5d92857067d69880a3688024f1370e56a09e636014053","v":1,"creates":null,"chainId":56}, hash="0x96744b2b4d343c9a6a8ace87fb5231b6d2aca5418853174d6cc41a5c11d6ee51", receipt={"to":"0x1BE03f82EAbE1C898b83A3eDa696886247e8669e","from":"0xEC6c09E7024900a25AA69d01812aDFF01D50DC68","contractAddress":null,"transactionIndex":60,"gasUsed":{"type":"BigNumber","hex":"0xbf4c"},"logsBloom":"0x00000000000000000000000000000000000000000000000000000000000000000000000000000000000000000000000000000000000000000000000000000000000000000000000000000000000000010000000000000000000000000000000000000000000000200000000000000000000000000000000000000800000000000000000000000000000000000000000000000000000000000000000000000000000000000000000000000000000000000000000000000000000000080000000000000000000000000000000000000000000000000000000000000000000000000800000000000800000000000000000000000000000000000000000000000000","blockHash":"0x3e6d56e22b9da16c02ec13d9a3f6cff94989f395e7f6ffbb43995ab1690c9e99","transactionHash":"0x382dc4df9ad6c889e27d241f8950c64ac078bd1ba6736a5e86833d18ada3ff53","logs":[{"transactionIndex":60,"blockNumber":48112348,"transactionHash":"0x382dc4df9ad6c889e27d241f8950c64ac078bd1ba6736a5e86833d18ada3ff53","address":"0x1BE03f82EAbE1C898b83A3eDa696886247e8669e","topics":["0xa509802f53aceeac249d104974626ff677a62184ba33c1e9321d74a950df55a7"],"data":"0x000000000000000000000000804678fa97d91b974ec2af3c843270886528a9e600000000000000000000000000000000000000000000000000000000000000010000000000000000000000000000000000000000000000000000000000000001","logIndex":142,"blockHash":"0x3e6d56e22b9da16c02ec13d9a3f6cff94989f395e7f6ffbb43995ab1690c9e99"}],"blockNumber":48112348,"confirmations":7,"cumulativeGasUsed":{"type":"BigNumber","hex":"0x507176"},"effectiveGasPrice":{"type":"BigNumber","hex":"0x59682f00"},"status":1,"type":2,"byzantium":true}, code=TRANSACTION_REPLACED, version=providers/5.8.0)
[2025-04-06T05:55:24.262Z] ERROR: Error checking profitability: invalid value for array (argument="value", value=undefined, code=INVALID_ARGUMENT, version=contracts/5.8.0)
[2025-04-06T05:55:30.289Z] ERROR: Error checking profitability: invalid value for array (argument="value", value=undefined, code=INVALID_ARGUMENT, version=contracts/5.8.0)
[2025-04-06T05:55:36.115Z] ERROR: Error checking profitability: invalid value for array (argument="value", value=undefined, code=INVALID_ARGUMENT, version=contracts/5.8.0)
[2025-04-06T05:55:42.979Z] ERROR: Error checking profitability: invalid value for array (argument="value", value=undefined, code=INVALID_ARGUMENT, version=contracts/5.8.0)
[2025-04-06T05:55:51.989Z] ERROR: Error checking profitability: invalid value for array (argument="value", value=undefined, code=INVALID_ARGUMENT, version=contracts/5.8.0)
[2025-04-06T05:55:58.437Z] ERROR: Error checking profitability: invalid value for array (argument="value", value=undefined, code=INVALID_ARGUMENT, version=contracts/5.8.0)
[2025-04-06T05:56:04.977Z] ERROR: Error checking profitability: invalid value for array (argument="value", value=undefined, code=INVALID_ARGUMENT, version=contracts/5.8.0)
[2025-04-06T05:56:11.070Z] ERROR: Error checking profitability: invalid value for array (argument="value", value=undefined, code=INVALID_ARGUMENT, version=contracts/5.8.0)
[2025-04-06T06:02:06.030Z] ERROR: Pair 0x69D3646Da5bfaA30BA1e5255d3960EeE9ca0a5cF does not exist or is not accessible: bad address checksum (argument="address", value="0x69D3646Da5bfaA30BA1e5255d3960EeE9ca0a5cF", code=INVALID_ARGUMENT, version=address/5.8.0)
[2025-04-06T06:02:06.031Z] ERROR: Pair 0x1483767D036cB1eeC27AE15f7A85dE41e1aA87A2 does not exist or is not accessible: bad address checksum (argument="address", value="0x1483767D036cB1eeC27AE15f7A85dE41e1aA87A2", code=INVALID_ARGUMENT, version=address/5.8.0)
[2025-04-06T06:02:06.032Z] ERROR: Pair 0xA0C3Ef24eeF06Be6c8f5e9aD44d647B38bD87A8B does not exist or is not accessible: bad address checksum (argument="address", value="0xA0C3Ef24eeF06Be6c8f5e9aD44d647B38bD87A8B", code=INVALID_ARGUMENT, version=address/5.8.0)
[2025-04-06T06:02:06.032Z] ERROR: Pair 0x259196C42c7737C4F6AD845A90d9920Beb7bF310 does not exist or is not accessible: bad address checksum (argument="address", value="0x259196C42c7737C4F6AD845A90d9920Beb7bF310", code=INVALID_ARGUMENT, version=address/5.8.0)
[2025-04-06T06:02:18.144Z] ERROR: Failed to authorize pair 0x0eD7e52944161450477ee417DE9Cd3a859b14fD0: processing response error (body="{\"jsonrpc\":\"2.0\",\"error\":{\"code\":-32000,\"message\":\"INTERNAL_ERROR: could not replace existing tx\"},\"id\":92}", error={"code":-32000}, requestBody="{\"method\":\"eth_sendRawTransaction\",\"params\":[\"0x02f8cf38088459682f008459682f0082bf4c941be03f82eabe1c898b83a3eda696886247e8669e80b86481598e890000000000000000000000000ed7e52944161450477ee417de9cd3a859b14fd000000000000000000000000000000000000000000000000000000000000000010000000000000000000000000000000000000000000000000000000000000001c080a03524b1956eaf2d14e3f6d44bb32f29f9d8377ca62342977513591b5015d37c82a025001a9ae7c9efddc5a8fb189b97303a3d9115516e6fcdea25cfb5f98fe1aa82\"],\"id\":92,\"jsonrpc\":\"2.0\"}", requestMethod="POST", url="https://bsc-mainnet.infura.io/v3/2acd67a7a87446fabc0602afcff6eff4", code=SERVER_ERROR, version=web/5.8.0)
[2025-04-06T06:09:11.217Z] ERROR: Failed to authorize pair 0x69D3646da5bfaA30BA1e5255d3960EeE9ca0a5CF: bad address checksum (argument="address", value="0x69D3646da5bfaA30BA1e5255d3960EeE9ca0a5CF", code=INVALID_ARGUMENT, version=address/5.8.0)
[2025-04-06T06:09:11.218Z] ERROR: Failed to authorize pair 0x1483767D036cB1eeC27AE15f7A85de41e1aA87A2: bad address checksum (argument="address", value="0x1483767D036cB1eeC27AE15f7A85de41e1aA87A2", code=INVALID_ARGUMENT, version=address/5.8.0)
[2025-04-06T06:09:11.220Z] ERROR: Failed to authorize pair 0xA0C3Ef24eef06Be6c8f5e9aD44d647B38bD87A8B: bad address checksum (argument="address", value="0xA0C3Ef24eef06Be6c8f5e9aD44d647B38bD87A8B", code=INVALID_ARGUMENT, version=address/5.8.0)
[2025-04-06T06:09:11.221Z] ERROR: Failed to authorize pair 0x259196C42c7737C4F6AD845A90d9920Beb7Bf310: bad address checksum (argument="address", value="0x259196C42c7737C4F6AD845A90d9920Beb7Bf310", code=INVALID_ARGUMENT, version=address/5.8.0)
[2025-04-06T06:21:59.182Z] ERROR: Failed to authorize pair 0xA0C3Ef24eef06Be6c8f5e9aD44d647B38bD87A8B: bad address checksum (argument="address", value="0xA0C3Ef24eef06Be6c8f5e9aD44d647B38bD87A8B", code=INVALID_ARGUMENT, version=address/5.8.0)
[2025-04-06T06:21:59.183Z] ERROR: Failed to authorize pair 0x259196C42c7737C4F6AD845A90d9920Beb7Bf310: bad address checksum (argument="address", value="0x259196C42c7737C4F6AD845A90d9920Beb7Bf310", code=INVALID_ARGUMENT, version=address/5.8.0)
[2025-04-06T06:21:59.185Z] ERROR: Failed to authorize pair 0x5bf6941f029424674bb93A43b79fc46bf4A67c21: bad address checksum (argument="address", value="0x5bf6941f029424674bb93A43b79fc46bf4A67c21", code=INVALID_ARGUMENT, version=address/5.8.0)
[2025-04-06T06:21:59.187Z] ERROR: Failed to authorize pair 0xD7422F07a6C7C251991897834Dc739c865E72C1e: bad address checksum (argument="address", value="0xD7422F07a6C7C251991897834Dc739c865E72C1e", code=INVALID_ARGUMENT, version=address/5.8.0)
